:020000040000fa
:080000000001040000000000f3
:020000040000fa
:0400080010020000e2
:020000040000fa
:04000c00520200009c
:020000040000fa
:040010009202000058
:020000040000fa
:0400140030020000b6
:020000040000fa
:040018007202000070
:020000040000fa
:04001c00e8020000f6
:020000040000fa
:04002000e8020000f2
:020000040000fa
:04002400e8020000ee
:020000040000fa
:04002800e8020000ea
:020000040000fa
:04002c00e8020000e6
:020000040000fa
:04003000e8020000e2
:020000040000fa
:04003400e8020000de
:020000040000fa
:04003800e8020000da
:020000040000fa
:04003c00e8020000d6
:020000040000fa
:04004000e8020000d2
:020000040000fa
:04004400e8020000ce
:020000040000fa
:04004800b202000000
:020000040000fa
:04004c00e8020000c6
:020000040000fa
:04005000e8020000c2
:020000040000fa
:04005400e8020000be
:020000040000fa
:04005800e8020000ba
:020000040000fa
:04005c00e8020000b6
:020000040000fa
:04006000e8020000b2
:020000040000fa
:04006400e8020000ae
:020000040000fa
:04006800e8020000aa
:020000040000fa
:04006c00e8020000a6
:020000040000fa
:04007000e8020000a2
:020000040000fa
:04007400e80200009e
:020000040000fa
:04007800e80200009a
:020000040000fa
:04007c00e802000096
:020000040000fa
:04008000e802000092
:020000040000fa
:04008400e80200008e
:020000040000fa
:04008800e80200008a
:020000040000fa
:04008c00e802000086
:020000040000fa
:04009000e802000082
:020000040000fa
:04009400e80200007e
:020000040000fa
:04009800e80200007a
:020000040000fa
:04009c00e802000076
:020000040000fa
:0400a000e802000072
:020000040000fa
:0400a400e80200006e
:020000040000fa
:0400a800e80200006a
:020000040000fa
:0400ac00e802000066
:020000040000fa
:0400b000e802000062
:020000040000fa
:0400b400e80200005e
:020000040000fa
:0400b800e80200005a
:020000040000fa
:0400bc00e802000056
:020000040000fa
:0400c000e802000052
:020000040000fa
:0400c400e80200004e
:020000040000fa
:0400c800e80200004a
:020000040000fa
:0400cc00e802000046
:020000040000fa
:0400d000e802000042
:020000040000fa
:0400d400e80200003e
:020000040000fa
:0400d800e80200003a
:020000040000fa
:0400dc00e802000036
:020000040000fa
:0400e000e802000032
:020000040000fa
:0400e400e80200002e
:020000040000fa
:0400e800e80200002a
:020000040000fa
:0400ec00e802000026
:020000040000fa
:0400f000e802000022
:020000040000fa
:0400f400e80200001e
:020000040000fa
:0400f800e80200001a
:020000040000fa
:0400fc00e802000016
:020000040000fa
:04010000e802000011
:020000040000fa
:04010400e80200000d
:020000040000fa
:04010800e802000009
:020000040000fa
:04010c00e802000005
:020000040000fa
:04011000e802000001
:020000040000fa
:04011400e8020000fd
:020000040000fa
:04011800e8020000f9
:020000040000fa
:04011c00e8020000f5
:020000040000fa
:04012000e8020000f1
:020000040000fa
:04012400e8020000ed
:020000040000fa
:04012800e8020000e9
:020000040000fa
:04012c00e8020000e5
:020000040000fa
:04013000e8020000e1
:020000040000fa
:04013400e8020000dd
:020000040000fa
:04013800e8020000d9
:020000040000fa
:04013c00e8020000d5
:020000040000fa
:04014000e8020000d1
:020000040000fa
:04014400e8020000cd
:020000040000fa
:04014800e8020000c9
:020000040000fa
:04014c00e8020000c5
:020000040000fa
:04015000e8020000c1
:020000040000fa
:04015400e8020000bd
:020000040000fa
:04015800e8020000b9
:020000040000fa
:04015c00e8020000b5
:020000040000fa
:04016000e8020000b1
:020000040000fa
:04016400e8020000ad
:020000040000fa
:04016800e8020000a9
:020000040000fa
:04016c00e8020000a5
:020000040000fa
:04017000e8020000a1
:020000040000fa
:04017400e80200009d
:020000040000fa
:04017800e802000099
:020000040000fa
:04017c00e802000095
:020000040000fa
:04018000e802000091
:020000040000fa
:04018400e80200008d
:020000040000fa
:04018800e802000089
:020000040000fa
:04018c00e802000085
:020000040000fa
:04019000e802000081
:020000040000fa
:04019400e80200007d
:020000040000fa
:04019800e802000079
:020000040000fa
:04019c00e802000075
:020000040000fa
:0401a000e802000071
:020000040000fa
:0401a400e80200006d
:020000040000fa
:0401a800e802000069
:020000040000fa
:0401ac00e802000065
:020000040000fa
:0401b000e802000061
:020000040000fa
:0401b400e80200005d
:020000040000fa
:0401b800e802000059
:020000040000fa
:0401bc00e802000055
:020000040000fa
:0401c000e802000051
:020000040000fa
:0401c400e80200004d
:020000040000fa
:0401c800e802000049
:020000040000fa
:0401cc00e802000045
:020000040000fa
:0401d000e802000041
:020000040000fa
:0401d400e80200003d
:020000040000fa
:0401d800e802000039
:020000040000fa
:0401dc00e802000035
:020000040000fa
:0401e000e802000031
:020000040000fa
:0401e400e80200002d
:020000040000fa
:0401e800e802000029
:020000040000fa
:0401ec00e802000025
:020000040000fa
:0401f000e802000021
:020000040000fa
:0401f400e80200001d
:020000040000fa
:0401f800e802000019
:020000040000fa
:0401fc00e802000015
:020000040000fa
:100200006f8621000e7f24000e0188000000000090
:10021000000020000000e000020032000001200089
:100220002002880014000700eb0007000000e00037
:1002300003003a0060fe20000100200002003700a9
:100240000000200001002000810f7000010032003a
:1002500014000700000020000000e000020032004f
:1002600000000200000000000a030200000000007d
:100270000040da000000fe004440a900c000200059
:100280000000e00003003200002020009001880000
:100290004440a800000006008a1f78008b1f7800e9
:1002a00000000600a1028800800478000000eb0036
:1002b0001f003700e284440054a0b4009905ba003e
:1002c000e284440054a0b4009906ba00e2844400d9
:1002d00054a0b4000006eb00476fde00fd07b2003b
:1002e000ae018800636ce10003003a00eaff0700fa
:1002f0000000eb000e003700606ce10008003a00df
:10030000004deb000a05e800020039003420ec0043
:100310000af0a0008b05e900f9ff3e000400370059
:100320006168e100010032000086eb000b0007006d
:1003300019c7ba001905ba000e04e00003003a001c
:100340000a00e000dbff3a0000000600fe07b200f2
:10035000ae0288008a047800f5ff37000cd0a300b5
:10036000e20f4d001c00390089027800354dba00bb
:100370000a05e800020039003420ec000af0a00071
:100380008b05e9000f003200254dba000a05e80090
:10039000020039003420ec000af0a0008b05e900cf
:1003a000080032000c00e0000600320015cdba0053
:1003b0000a05e800020039003420ec000af0a00031
:1003c0008b05e9008984e80054a0b4000b00e0002c
:1003d000e2ff3a00000006009902ba00055d7800cd
:1003e0008b05e900f7ff3200c82ade00055d7800c2
:1003f0008b05e900f3ff32000c00e000f1ff320052
:1004000019ddba00eeff37004408040000000000c8
:10041000140d0400000000005c0e04000000000049
:100420003600f800809fbe00829fbe00849fbe0001
:10043000869fbe000000fa008020a9000000eb00ab
:100440005e0707000080fa004f03be004f02be00a7
:100450004f01be004f00be003600f900004006000c
:100460003600f800809fbe00829fbe00849fbe00c1
:10047000869fbe000000fa00550707008040a900d3
:10048000100020004d0707000080fa004f03be0057
:100490004f02be004f01be004f00be003600f90003
:1004a000004006003600f800809fbe00829fbe001c
:1004b000849fbe00869fbe000000fa008060a900f5
:1004c000200020003d0707000080fa004f03be0017
:1004d0004f02be004f01be004f00be003600f900c3
:1004e000004006003600f800809fbe00829fbe00dc
:1004f000849fbe00869fbe000000fa008080a90095
:10050000300020002d0707000080fa004f03be00d6
:100510004f02be004f01be004f00be003600f90082
:10052000004006003600f800809fbe00829fbe009b
:10053000849fbe00869fbe000000fa008600a900ce
:10054000700020001d0707000080fa004f03be0066
:100550004f02be004f01be004f00be003600f90042
:10056000004006003600f800809fbe00829fbe005b
:10057000849fbe00869fbe000000fa0040418000bc
:100580000000e00002003200404180000000010055
:1005900050862100104078008040e80050862100fd
:1005a000014878004086210011c0b300014878005e
:1005b0008900a9000080fa004f03be004f02be0070
:1005c0004f01be004f00be003600f900004006009b
:0c05d0000040da000000fe000000050002
:020000040000fa
:1005dc000b14000000000000000000000b0a0000db
:0805ec00000000000000000007
:020000040000fa
:1005f4000000fa0047e7a8000080fa0000000600a7
:100604000000fa0047e7a9000080fa000000060095
:100614000200fa00f4060700c002070000002000f0
:10062400010120006d0507006000b8008405070083
:1006340040842000a2050700a905070020c0b300dc
:1006440014e8b7000000eb00000f780018c8bf00e2
:100654000004e00002003200b00207001868ef0056
:100664000dc8bf000004e0001a00320010c0b3003f
:1006740088030700c01220007b060700ab030700b5
:100684000004e000110032008ee6a800008321007f
:10069400b3030700a182210000832100cc000700de
:1006a4000000e00009003200c503070020c0b300c9
:1006b40078030700a00020006b060700a082210039
:1006c4008c030700a000200067060700bc03070096
:1006d4000d68ef00c6ff07000000eb00000f780074
:1006e400010037001e0fe8001e007800f30f5000d1
:1006f400fcff36000000eb00000f78000f0037000d
:100704009021ef0010002000cf0407008000780043
:100714001e00780000014000a0822000000041007b
:100724000108780000000000810c800070022000a5
:10073400808f5000fcff36001e0fe800f07f200081
:100744009e007800808f5000edff3600acff07005c
:100754000028ef000228ef000428ef000628ef002d
:100764000000eb00000f78000d0037001e00780039
:1007740080004000a082200000804000100078002b
:100784006101b80020408000314080000200400038
:100794008380480020408800314088001e0fe80014
:1007a400f07f20009e007800808f5000efff36001d
:1007b40020408000314080004509dd004b00de0010
:1007c40000007100cb08de00204088003140880022
:1007d4000000eb00000f7800140037001e007800c2
:1007e40080004000a08220000080400010007800bb
:1007f4000001780020408000314080000000780033
:100804000000510000f0a7000000ea006101b900f7
:1008140000408000114080000200400083804800b6
:1008240000408800114088001e0fe800f07f20007f
:100834009e007800808f5000e8ff3600e040800082
:100844008000eb0002c62c00530020000000510081
:10085400818059000001be000040800011408000ea
:10086400800f5100818f59000c003e00d040800061
:100874006101b80000c62c005100200002004000b5
:10088400838048000001be000040800011408000c9
:10089400800f5100818f5900060031008f06a80097
:1008a40010c0b3001ee8b70010c0b3000ce8b700d6
:1008b4000a0037001ec8bf000004e0000400320034
:1008c4008f06a80010c0b3000ce8b7000200370080
:1008d4008f06a9000c68ef001e68ef000cc8bf006b
:1008e4000004e0002e0032003503070020c0b300ee
:1008f400e8020700a0002000db0507008ee6a80040
:10090400a0822100b1c0b30001487800b082210068
:1009140081c2b3000148780000408000114080008b
:100924004808de0080407800c08221000148780039
:1009340000408000114080004008de0080407800c4
:10094400d0822100014878000040800011408000de
:100954004809dd004800de0000007100c808de0020
:1009640080407800e0822100014878000040800047
:100974001140800080407800f08221000148780016
:10098400a0822100db020700a0002000b6050700ba
:100994008ee6a9000a03070010c0b3000de8b700f3
:1009a40022c8bf000004e000020032000702070072
:1009b4002268ef008ec6a800a0002000aa05070048
:1009c4008ec6a900c0122000a70507001dff37002e
:1009d4000400fa00000f7800110798001e00e800d8
:1009e400104078000080fb006101b90030ff2f0047
:1009f400f1ff2f0002004000838048000203200022
:100a040003002000820f5000838f58009a013e009b
:100a14000060010030003700970137003c003700c8
:100a240062003700940137009301370092013700c8
:100a340091013700900137008f013700870037009c
:100a44008d0137008c0137008b0137008a01370094
:100a54008901370088013700870137008601370094
:100a64008501370084013700830137008201370094
:100a740081013700800137007f0137007e01370094
:100a84007d01370093003700ae003700c9003700fe
:100a9400ef003700020137007701370014013700f7
:100aa4002f01370074013700410137004601370038
:100ab4004b01370041013700460137004b01370035
:100ac4006d0137006c0137006b0137006a01370094
:100ad400490137005e0137001fc8bf000004e00071
:100ae400050032001e0090000000e800c1c0b30001
:100af40001487800040037001e0090000000e80060
:100b040051c1b30001487800100020005b01370098
:100b14001e009000b1c0b300014878001e00900090
:100b24000000e80011c1b300014878001e009000e5
:100b34000081e80040408000514080004808de0009
:100b440000407800004978001e00900063014000d6
:100b540040408000514080004008de0000407800a2
:100b6400004978001e00900064014000404080006d
:100b740051408000c809dd004800de00008071009b
:100b8400c808de0000407800004978001e0090008c
:100b940065014000404080005140800000407800e2
:100ba4000049780010002000340137001e00900036
:100bb400b1c0b300014878001e0090000000e800b6
:100bc400c1c0b300014878001e80e80010407800de
:100bd4000080fb008000eb00c800dd000000200066
:100be40040408800514088009e00780063804000a7
:100bf400104078000080fb008000eb00c000dd00a6
:100c04000000200040408800514088009e01780088
:100c140064804100104078000081fb008001eb00fb
:100c24004818dd00c810de00810070004810dd00a7
:100c340040408800514088009e0078006580400054
:100c4400104078000080fb008000eb0040408800ea
:100c54005140880010002000080137001e00900059
:100c6400b1c0b300014878001e0090000000e80005
:100c740041c1b300014878004c010700b04088002e
:100c84001e0090000080e8008040eb0001487800de
:100c94001e009000630040008040eb000148780093
:100ca4001e00900064004000b1408000c808de00cf
:100cb40081407800014878001e00900065004000e3
:100cc400b140800081407800014878001000200085
:100cd400ea0037001e009000b1c0b300014878005c
:100ce4001e0090000000e80091c2b30001487800a3
:100cf4001e0090000080e8008040eb00014878006e
:100d04001e009000630040008040eb000148780022
:100d14001e00900064004000e1408000c808de002e
:100d240081407800014878001e0090006500400072
:100d3400e1408000814078000148780010002000e4
:100d4400ce0037001e009000b1c0b3000148780007
:100d54001e0090000000e80091c2b3000148780032
:100d64001e0090000080e8008040eb0001487800fd
:100d74001e009000630040008040eb0001487800b2
:100d84001e00900064004000d1408000c808de00ce
:100d940081407800014878001e0090006500400002
:100da400d140800081407800014878001000200084
:100db400b20037001e009000b1c0b30001487800b3
:100dc4001e0090000000e800b1c2b30001487800a2
:100dd4001e0090000081e800204080003140800027
:100de4004808de0000407800004978001e009000aa
:100df4006301400020408000314080004008de0054
:100e040000407800004978001e0090006401400012
:100e14002040800031408000c809dd004800de0029
:100e240000807100c808de000040780000497800a6
:100e34001e00900065014000204080003140800089
:100e44000040780000497800100020008b00370033
:100e54001e009000b1c0b300014878001e0090004d
:100e64000000e800c1c0b300014878009e0078008b
:100e740064804000104078000080fb004800dd00e2
:100e8400e04088009e0178006580410010407800b1
:100e94000080fb00e040880010002000770037004d
:100ea4001e009000b1c0b300014878001e009000fd
:100eb4000000e800c1c0b300014878009e0078003b
:100ec40064804000104078000080fb004800dd0092
:100ed400d04088009e017800658041001040780071
:100ee4000080fb00d0408800100020006300370021
:100ef4001e009000b1c0b300014878001e009000ad
:100f04000000e800f1c2b300014878001e00900020
:100f14000080e8008040eb00014878001e0090004b
:100f2400630040008040eb00014878001e00900000
:100f34006400400001418000c808de008140780060
:100f4400014878001e0090006500400001418000c7
:100f540081407800014878001000200047003700e5
:100f64001e009000b1c0b300014878001e0090003c
:100f74000000e800c1c0b300014878009e0078007a
:100f840064804000104078000080fb004800dd00d1
:100f9400004188009e01780065804100104078007f
:100fa4000080fb000041880010002000330037005f
:100fb4008ec6a8000000eb00300037008ec6a900e2
:100fc4000000eb002d0037008ee6a8000000eb00c7
:100fd4002a0037008ee6a9000000eb002700370046
:100fe4008f06a8000000eb00240037008f06a9003c
:100ff4000000eb00210037001e009000b1c0b300d8
:10100400014878001e0090000000e800c1c0b30051
:10101400014878006a01070020c0b3001d010700e1
:10102400a000200010040700a08221003101070065
:10103400a00020000c0407006101070010c0b300e9
:101044000ee8b700260007000000eb000b00370095
:101054001e009000b1c0b300014878001e0090004b
:101064000000e800c1c0b300014878000e68ef003a
:101074000000eb0001003700100020000080fa009f
:10108400000006000000fa0014c8bf00e14f500041
:1010940003003a0010c0b30018e8b700020037009c
:1010a40010c0b30022e8b7000000200001082000af
:1010b400ca0207006000b800e10207004084200073
:1010c400ff0207000603070010c0b3000de8b700d5
:1010d40020c0b30014e8b7000080fa000000060046
:1010e4000000fa000000200001002100bb020700fc
:1010f4006000b800d202070040842000f00207001c
:1011040023000700f602070010c0b30014e8b7007c
:101114000040fe000080fa00000006000600fa000d
:101124007bc6a8008ec6a80040012000ce0307009d
:101134008ec6a900412f280005000900315f780000
:101144006e00b100c38521006285210021c0b30077
:1011540020c0b300940007001901070020c0b300a9
:10116400cc000700a0002000bf0307008f06a800e2
:101174000e007800df0007008f06a90010010700a9
:1011840010c0b300c30007000080fa00000006008e
:101194000000fa007bc6a9008ec6a9008ee6a9004d
:1011a4008f06a9000080fa00000006000000fa0083
:1011b4007ba6a800a0002000ab0307007ba6a90023
:1011c400c08f20000080fa00000006000800fa002a
:1011d400e2004700e22e280005000900b25878001a
:1011e4000000eb00000f7800f500070020c0b300fa
:1011f400a8000700a00020009b0307008ee6a800bb
:10120400eaff0700000f7800b1408000b08520009d
:10121400808f500001003e001f68ef008ee6a90099
:101224008ec6a8000040eb00404798000040eb0049
:10123400504798001e0078004800de000040780007
:10124400604798001e0078000040780070479800be
:101254000e80e800a7000700a0002000820307001a
:101264008ec6a900d600070010c0b3000de8b70071
:101274000080fa00000006000200fa00004f780027
:10128400114798008e06a9001e4078000054a00063
:10129400680107001e409000660107008e06a80042
:1012a4000080fa00000006000400fa0020479800bd
:1012b4008e06a9002e4090005e0107000040eb005e
:1012c4005c010700004f78008e06a8001e407800dd
:1012d4000080fa00000006000800fa002047980089
:1012e40021079800624798008e06a9002e409000be
:1012f400500107000040eb00004f78000700370062
:101304002e009000104078004a0107002e00900043
:101314000000e800200798001e4fe8006e4090008f
:101324009e40780080cf5000f5ff39008e06a8005b
:101334000080fa00000006000800fa002047980028
:1013440021079800624798008e06a9002e4090005d
:10135400380107000040eb00004f78000800370018
:101364000040eb0033010700ae0090008048780095
:101374002e0090000000e800200798001e4fe800af
:101384006e4090009e40780080cf5000f4ff3900fa
:101394002e0090008040eb00014878008e06a800e3
:1013a4000080fa00000006000600fa00004f7800f2
:1013b4001147980012079800230798008a06a9008d
:1013c4008a26a9008e06a8008e26a90040062000c1
:1013d40025030700a1c0b3000040eb00a6ff0700ef
:1013e400a00020002003070031c0b30010c0b300e8
:1013f400a1ff070031c0b30020c0b3009eff070067
:1014040031c0b30030c0b3009bff070081c3b300f9
:1014140040c0b30098ff07001e4090005c00070026
:1014240061c0b30060c0b30093ff070052c0b300b3
:101434009e009000a0c2b300a7ff070052c0b300f3
:10144400ae009000b0c2b300a3ff070052c0b300c7
:101454009e00900000c3b3009fff070061c0b3006b
:1014640010c1b30084ff070061c0b30020c1b30002
:1014740081ff070040062000fb0207001e407800a1
:101484000400070040062000f70207000080fa006d
:10149400000006000200fa00004f78005000070028
:1014a40001c7b30070c0b30073ff07001e80fb00c8
:1014b400e10f500003003200e20f5000060032003a
:1014c4000a003700f1c0b3000040eb006aff0700d8
:1014d4008e26a80005003700e1c0b3000040eb00f1
:1014e40065ff07008e26a900000000000080fa00b6
:1014f400000006000200fa00000f780020c0b300cc
:10150400e4ff070062c0b3009e00780000cab30085
:1015140071ff07008e26a80010002000d2020700e9
:101524008e26a9000080fa00000006000000fa00e0
:1015340070c0b3005cff07008080fb000004200043
:10154400008060000000e0000200320010c0b30020
:10155400010037000040eb000080fa0000000600a4
:101564000200fa00000f780062c0b3009e00780009
:1015740010c6b30070ff070001c7b30070c0b3000a
:101584003dff0700160007000080fa000000060077
:101594000200fa00004f78009e40780050c0b3006b
:1015a40035ff07000080fa00000006000000fa0082
:1015b40050c0b3003cff07000080fa0000000600a2
:1015c4000000fa00a1c0b3000040eb002aff0700ae
:1015d400a0002000a40207000080fa00000006001a
:1015e4000000fa008e06a90010ceb3009100070097
:1015f4008e06a8008e06a90020ceb3008d00070039
:101604008e06a8000080fa00000006000000fa0020
:10161400f623ef00f823ef00fc23ef000424ef008f
:101624000824ef000a24ef000c24ef000e24ef003e
:1016340010122800a01f88000080fa000000060095
:101644000400fa00000f7800110798000000000061
:10165400e01f8000620060000000e000fcff3a0030
:101664001e007800104078000080fb0000208800f5
:1016740000000000e11f80000002200000806000e4
:101684000000e000fbff3a0000208000804078006a
:101694001e009000014878000080fa000000060057
:1016a4001800fa00100f9800210f9800320f9800cc
:1016b4000000eb00000f78000000eb00100798001a
:1016c4000000eb00700798000000eb00000f98008a
:1016d40010002000600798001e0890000000e00041
:1016e40005003a000000eb00500798007000470026
:1016f4002007980004003700ee009000510798007e
:101704009e089000210798003e0890000000e00029
:1017140005003a000000eb00400798006e00470007
:101724003007980005003700ee009000410798004c
:10173400be0890003107980000000000e01f800000
:10174400620060000000e000fcff3a001d0037006a
:10175400e01f8000620060000000e00009003a0021
:101764002e009000104078000080fb0000208800cc
:10177400ae0090005e0090000080400020079800ba
:101784001e0fe800e11f80000002200000806000be
:101794000000e0000b003a00002080008040780048
:1017a4003e00900001487800be0090004e0090007a
:1017b40000804000300798001e0090000000e80000
:1017c400100798002e0890009e007800808f50002b
:1017d400dfff390010003700e11f80000002200005
:1017e400008060000000e0000b003a000020800050
:1017f400804078003e00900001487800be009000d0
:101804004e00900000804000300798001e009000b9
:101814000000e800100798009e0090002e08900039
:10182400808f5000ecff39001e0078000080fa0021
:10183400000006000400fa00204798000e80e8002b
:101844008e0078007eff07001e4078000080fa00ba
:10185400000006000600fa00000f78001107980047
:10186400220798002e0190009e0090001e00780030
:101874008bff07000080fa00000006000000fa0059
:10188400a11f800000802000008060000000e000b4
:10189400020032002000200008003700a11f800051
:1018a40000402000008060000000e00002003200e0
:1018b40010002000010037000000eb000080fa0057
:1018c400000006000000fa00e01f80000080fa001b
:1018d400000006000200fa00000f78001e007800e5
:1018e400e30f500020003200e30f500005003e00db
:1018f400e10f500010003200e10f500014003e00d0
:1019040007003700e50f500023003200e50f5000b8
:101914001b003900e60f5000250032002a00370072
:10192400613a800000fe2f00008060000030a000bb
:10193400603a880024003700613a800000fe2f00de
:10194400008060009000b300603a88001e003700f9
:10195400613a800000fe2f0000806000e000b300c8
:10196400603a880018003700613a800000fe2f00ba
:1019740000806000f000b300603a88001200370075
:10198400613a800000fe2f0000806000c001b300b7
:10199400603a88000c003700613a800000fe2f0096
:1019a40000806000d001b300603a88000600370070
:1019b400613a800000fe2f0000806000e001b30067
:1019c400603a8800000000000080fa000000060071
:1019d4000000fa0000402800303a88004827ef0051
:1019e40010202000503a880090802000603a88003f
:1019f4004e27ef005027ef005227ef005427ef0047
:101a04005827ef005a27ef005c27ef005e27ef000e
:101a1400f422ef0040d12000050007000080fa0006
:101a2400000006000000fa000080fa000000060032
:101a34000200fa00000f78001e0078003041880090
:101a44000080fa00000006000400fa001007980065
:101a54001e0090009fff07004627a8000000eb002f
:101a6400000f7800010037001e0fe8001e00780008
:101a7400e30f5000fcff36004627a9000000eb00ee
:101a8400000f7800010037001e0fe8001e007800e8
:101a9400ee0f5000fcff360000000000303a8000da
:101aa400610060000000e000fcff3200903880001c
:101ab4000080fa00000006000000fa0041048000e3
:101ac40000002200008060000000e00006003200f8
:101ad400304180000000e00002003200304180000c
:101ae4000000010089a0a9000080fa00000006009f
:101af4000000fa004627a8000080fa000000060053
:101b04000000fa004627a9000080fa000000060041
:101b14000800fa0030079800403a80004200de00d6
:101b24007f4060000080fb002007980020712000a7
:101b3400100798000000eb00000f78000b0037003e
:101b44001e00780000004000be00900000804000ad
:101b54009e00900091007800010878001e0090001b
:101b64000080e800100798001e0fe8009e0078002f
:101b74002e009000808f5000f1ff36001e00780088
:101b84000080fa00000006000000fa009a21ef002d
:101b9400d01a2000f00c88009621ef007074220007
:101ba400e00c880080032800000d8800404180007c
:101bb4000000e00002003a00c0e5200040000700f9
:101bc4008900a9009900a800408621008040eb000c
:101bd400014878000080fa00000006000400fa00c2
:101be400008fbe001e007800e00c88001e00be00be
:101bf4004008de0000007800f00c88000080fa0045
:101c0400000006000400fa000080eb008080eb0076
:101c1400008fbe00f00c80008000eb00c001dd00ee
:101c240002002000e00c80008000eb00001f710027
:101c3400019771001e00be000080fa00000006003b
:101c44000400fa00008fbe001e00be004008de0043
:101c540000007800c00c88001e007800b00c8800da
:101c64000080fa00000006000800fa000080eb0083
:101c74008080eb00008fbe00b10c8000210798002b
:101c8400c10c8000310798003e0090008000eb00fa
:101c9400c001dd00020020002e0090008000eb0057
:101ca400001f7100019771001e00be000080fa0041
:101cb400000006000000fa000080fa0000000600a0
:101cc4000200fa00000f78009900a9009e00780035
:101cd400414188009900a8000080fa000000060035
:101ce4000000fa00408621008040eb0001487800a3
:101cf4009900a800a1e1a8000080fa0000000600f5
:101d04000000fa00a1e1a9009900a9000080fa00ee
:101d1400000006000200fa0040862100104f7800ff
:101d24001e4078000004e0000300320040862100d9
:101d34008040eb00014878001e4078000080fa00e3
:101d4400000006000000fa005086210010407800d0
:101d54000080fb000080fa00000006000000fa008a
:101d6400508621008040eb00014878000080fa0092
:101d7400000006000000fa009021ef00f09f2f0001
:101d8400900c880000202800a00c880020862100e8
:101d94008040eb00014878000080fa000000060053
:101da4000000fa0040048000680060000000e000c9
:101db4000900320030862100104078008040e8009d
:101dc40030862100014878002086210011c0b3002c
:101dd400014878008860a9000080fa00000006002d
:101de4000200fa00000f78009e007800910c880031
:101df400208621008040eb00014878000080fa0032
:101e0400000006000000fa00900c80000080fa0038
:101e1400000006000200fa00000f78009e0078001f
:101e2400810c8800208621008040eb000148780066
:101e34000080fa00000006000000fa00800c800018
:101e44000080fa00000006000000fa00208621004d
:101e54008040eb000148780095e1a8000080fa007a
:101e6400000006000000fa0095e1a9000080fa00d5
:101e7400000006000200fa0020862100104f7800be
:101e84001e4078000004e000030032002086210098
:101e94008040eb00014878001e4078000080fa0082
:101ea400000006000000fa0030862100104078008f
:101eb4000080fb000080fa00000006000000fa0029
:101ec400308621008040eb00014878000080fa0051
:101ed400000006000000fa006626ef007a26ef00f4
:101ee4008e26ef0070f9270010338800f0f32900e4
:101ef400b033880070222000503488007426ef002c
:101f04008826ef009c26ef007226ef008626ef005d
:101f14009a26ef006826ef007c26ef009026ef005b
:101f2400f000200050338800f0202900f0338800ae
:101f3400300020009034880001088000f00b20005d
:101f4400008160006004200071052000031020005f
:101f5400804978008149780082497800d13e800028
:101f640000f82f00008060000030a000d03e880000
:101f7400d13e8000f00f28008080600000702000b7
:101f840001007000d03e8800c13d800000fc2f009d
:101f9400008060000030a000c03d88000008800080
:101fa400000178000260a000600420007105200098
:101fb4000310200080497800814978008249780024
:081fc4000080fa000000060095
:020000040000fa
:101fcc0036180000200000008000000024080000eb
:101fdc000200000082000000ffff00005618000005
:101fec000c00000082000000303030003130000066
:101ffc0030303000313100002a0800000c10000095
:10200c0080000000000800001a00000080000000a2
:10201c001a0800000a0000008200000060ea60005c
:10202c00ea010100900101000000000026080000f8
:10203c000200000080000000621800000200000096
:10204c008000000064180000020000008000000006
:10205c0028080000020000008000000000000000c2
:020000040000fa
:10206c000400fa00100798000000eb00000f780045
:10207c00080037009021ef0071ff070000000000fe
:10208c00810c8000f0f92000808f5000fcff36009e
:10209c001e0fe8001e0090009e007800808f5000fc
:1020ac00f4ff39000080fa00000006000400fa007a
:1020bc00100798000000eb00000f780006003700b6
:1020cc009021ef0000000000800c8000e30f500016
:1020dc00fdff36001e0fe8001e0090009e007800e9
:1020ec00808f5000f6ff39000080fa0000000600d7
:1020fc000000fa0000002300100888000621ef0001
:10210c006821ef006a21ef000821ef000070200029
:10211c00500888000c21ef000e21ef007821ef0011
:10212c007a21ef007c21ef007e21ef008021ef006f
:10213c008221ef008421ef008621ef000001eb00eb
:10214c0080072000a109200013102000804978008e
:10215c0081497800824978000001eb00600420007e
:10216c007105200003102000804978008149780017
:10217c00824978000080fa00000006000000fa0096
:10218c0051058000f0ff28000080600000c0a00016
:10219c00500588006105800080ff2f0000806000e2
:1021ac000000a000600588000080fa000000060016
:1021bc000200fa00000f78009e0078002141880090
:1021cc00ffff37000000fa006083210080077800d1
:1021dc00e0842100000188000080fa000000060065
:1021ec000000fa0039ff0700c1ff0700e3ff0700fa
:1021fc0004fd0700f4fd070061fe0700dbfe07008d
:08220c000080fa00000006004a
:020000040000fa
:020000040005f5
:045e0000ffff0000a0
:020000040000fa
:020000040005f5
:045e2000ffffff0081
:020000040000fa
:020000040005f5
:045e300078ffff00f8
:020000040000fa
:020000040005f5
:045e3800b3ffff00b5
:020000040000fa
:020000040005f5
:045e40009fffff00c1
:020000040000fa
:020000040005f5
:045e4800ffffff0059
:020000040000fa
:020000040005f5
:045e5000deffff0072
:020000040000fa
:020000040005f5
:045e5800ffffff0049
:00000001FF
