:020000040000fa
:080000000001040000000000f3
:020000040000fa
:0400080010020000e2
:020000040000fa
:04000c00520200009c
:020000040000fa
:040010009202000058
:020000040000fa
:0400140030020000b6
:020000040000fa
:040018007202000070
:020000040000fa
:04001c00ea020000f4
:020000040000fa
:04002000ea020000f0
:020000040000fa
:04002400ea020000ec
:020000040000fa
:04002800ea020000e8
:020000040000fa
:04002c00ea020000e4
:020000040000fa
:04003000ea020000e0
:020000040000fa
:04003400ea020000dc
:020000040000fa
:04003800ea020000d8
:020000040000fa
:04003c00ea020000d4
:020000040000fa
:04004000ea020000d0
:020000040000fa
:04004400b202000004
:020000040000fa
:04004800ea020000c8
:020000040000fa
:04004c00ea020000c4
:020000040000fa
:04005000ea020000c0
:020000040000fa
:04005400ea020000bc
:020000040000fa
:04005800ea020000b8
:020000040000fa
:04005c00ea020000b4
:020000040000fa
:04006000ea020000b0
:020000040000fa
:04006400ea020000ac
:020000040000fa
:04006800ea020000a8
:020000040000fa
:04006c00ea020000a4
:020000040000fa
:04007000ea020000a0
:020000040000fa
:04007400ea0200009c
:020000040000fa
:04007800ea02000098
:020000040000fa
:04007c00ea02000094
:020000040000fa
:04008000ea02000090
:020000040000fa
:04008400ea0200008c
:020000040000fa
:04008800ea02000088
:020000040000fa
:04008c00ea02000084
:020000040000fa
:04009000ea02000080
:020000040000fa
:04009400ea0200007c
:020000040000fa
:04009800ea02000078
:020000040000fa
:04009c00ea02000074
:020000040000fa
:0400a000ea02000070
:020000040000fa
:0400a400ea0200006c
:020000040000fa
:0400a800ea02000068
:020000040000fa
:0400ac00ea02000064
:020000040000fa
:0400b000ea02000060
:020000040000fa
:0400b400ea0200005c
:020000040000fa
:0400b800ea02000058
:020000040000fa
:0400bc00ea02000054
:020000040000fa
:0400c000ea02000050
:020000040000fa
:0400c400ea0200004c
:020000040000fa
:0400c800ea02000048
:020000040000fa
:0400cc00ea02000044
:020000040000fa
:0400d000ea02000040
:020000040000fa
:0400d400ea0200003c
:020000040000fa
:0400d800ea02000038
:020000040000fa
:0400dc00ea02000034
:020000040000fa
:0400e000ea02000030
:020000040000fa
:0400e400ea0200002c
:020000040000fa
:0400e800ea02000028
:020000040000fa
:0400ec00ea02000024
:020000040000fa
:0400f000ea02000020
:020000040000fa
:0400f400ea0200001c
:020000040000fa
:0400f800ea02000018
:020000040000fa
:0400fc00ea02000014
:020000040000fa
:04010000ea0200000f
:020000040000fa
:04010400ea0200000b
:020000040000fa
:04010800ea02000007
:020000040000fa
:04010c00ea02000003
:020000040000fa
:04011000ea020000ff
:020000040000fa
:04011400ea020000fb
:020000040000fa
:04011800ea020000f7
:020000040000fa
:04011c00ea020000f3
:020000040000fa
:04012000ea020000ef
:020000040000fa
:04012400ea020000eb
:020000040000fa
:04012800ea020000e7
:020000040000fa
:04012c00ea020000e3
:020000040000fa
:04013000ea020000df
:020000040000fa
:04013400ea020000db
:020000040000fa
:04013800ea020000d7
:020000040000fa
:04013c00ea020000d3
:020000040000fa
:04014000ea020000cf
:020000040000fa
:04014400ea020000cb
:020000040000fa
:04014800ea020000c7
:020000040000fa
:04014c00ea020000c3
:020000040000fa
:04015000ea020000bf
:020000040000fa
:04015400ea020000bb
:020000040000fa
:04015800ea020000b7
:020000040000fa
:04015c00ea020000b3
:020000040000fa
:04016000ea020000af
:020000040000fa
:04016400ea020000ab
:020000040000fa
:04016800ea020000a7
:020000040000fa
:04016c00ea020000a3
:020000040000fa
:04017000ea0200009f
:020000040000fa
:04017400ea0200009b
:020000040000fa
:04017800ea02000097
:020000040000fa
:04017c00ea02000093
:020000040000fa
:04018000ea0200008f
:020000040000fa
:04018400ea0200008b
:020000040000fa
:04018800ea02000087
:020000040000fa
:04018c00ea02000083
:020000040000fa
:04019000ea0200007f
:020000040000fa
:04019400ea0200007b
:020000040000fa
:04019800ea02000077
:020000040000fa
:04019c00ea02000073
:020000040000fa
:0401a000ea0200006f
:020000040000fa
:0401a400ea0200006b
:020000040000fa
:0401a800ea02000067
:020000040000fa
:0401ac00ea02000063
:020000040000fa
:0401b000ea0200005f
:020000040000fa
:0401b400ea0200005b
:020000040000fa
:0401b800ea02000057
:020000040000fa
:0401bc00ea02000053
:020000040000fa
:0401c000ea0200004f
:020000040000fa
:0401c400ea0200004b
:020000040000fa
:0401c800ea02000047
:020000040000fa
:0401cc00ea02000043
:020000040000fa
:0401d000ea0200003f
:020000040000fa
:0401d400ea0200003b
:020000040000fa
:0401d800ea02000037
:020000040000fa
:0401dc00ea02000033
:020000040000fa
:0401e000ea0200002f
:020000040000fa
:0401e400ea0200002b
:020000040000fa
:0401e800ea02000027
:020000040000fa
:0401ec00ea02000023
:020000040000fa
:0401f000ea0200001f
:020000040000fa
:0401f400ea0200001b
:020000040000fa
:0401f800ea02000017
:020000040000fa
:0401fc00ea02000013
:020000040000fa
:100200008f8620000e7f24000e0188000000000071
:10021000000020000000e000020032000001200089
:100220002002880014000700ec0007000000e00036
:1002300003003a0020f920000100200002003700ee
:100240000000200001002000810f7000010032003a
:1002500014000700000020000000e000020032004f
:1002600000000200000000001a030200000000006d
:100270000040da000000fe004440a900c000200059
:100280000000e00003003200002020009001880000
:100290004440a800000006008a1f78008b1f7800e9
:1002a00000000600a1028800800478000000eb0036
:1002b0001f003700e284440054a0b4009905ba003e
:1002c000e284440054a0b4009906ba00e2844400d9
:1002d00054a0b4000006eb00476fde00fd07b2003b
:1002e000ae018800636ce10003003a00eaff0700fa
:1002f0000000eb000e003700606ce10008003a00df
:10030000004deb000a05e800020039003420ec0043
:100310000af0a0008b05e900f9ff3e000400370059
:100320006168e100010032000086eb000b0007006d
:1003300019c7ba001905ba000e04e00003003a001c
:100340000a00e000dbff3a0000000600fe07b200f2
:10035000ae0288008a047800f5ff37000cd0a300b5
:10036000e20f4d001c00390089027800354dba00bb
:100370000a05e800020039003420ec000af0a00071
:100380008b05e9000f003200254dba000a05e80090
:10039000020039003420ec000af0a0008b05e900cf
:1003a000080032000c00e0000600320015cdba0053
:1003b0000a05e800020039003420ec000af0a00031
:1003c0008b05e9008984e80054a0b4000b00e0002c
:1003d000e2ff3a00000006009902ba00055d7800cd
:1003e0008b05e900f7ff3200c82ade00055d7800c2
:1003f0008b05e900f3ff32000c00e000f1ff320052
:1004000019ddba00eeff37009a0c0400000000006e
:10041000a40d040000000000cc0504000000000052
:100420003600f800809fbe00829fbe00849fbe0001
:10043000869fbe000000fa008020a9000000eb00ab
:10044000010707000080fa004f03be004f02be0004
:100450004f01be004f00be003600f900004006000c
:100460003600f800809fbe00829fbe00849fbe00c1
:10047000869fbe000000fa00f80607008040a90031
:1004800010002000f00607000080fa004f03be00b5
:100490004f02be004f01be004f00be003600f90003
:1004a000004006003600f800809fbe00829fbe001c
:1004b000849fbe00869fbe000000fa008060a900f5
:1004c00020002000e00607000080fa004f03be0075
:1004d0004f02be004f01be004f00be003600f900c3
:1004e000004006003600f800809fbe00829fbe00dc
:1004f000849fbe00869fbe000000fa008080a90095
:1005000030002000d00607000080fa004f03be0034
:100510004f02be004f01be004f00be003600f90082
:10052000004006003600f800809fbe00829fbe009b
:10053000849fbe00869fbe000000fa008600a900ce
:1005400070002000c00607000080fa004f03be00c4
:100550004f02be004f01be004f00be003600f90042
:10056000004006003600f800809fbe00829fbe005b
:10057000849fbe00869fbe000000fa00b04080004d
:100580000000e00003003200b040800000000100e5
:100590008ee6a80070862000104078008040e800b9
:1005a00070862000014878006086200011c0b300ea
:1005b0000148780088e0a9000080fa004f03be00df
:1005c0004f02be004f01be004f00be003600f900d2
:1005d000004006000040da000000fe0000000500b8
:1005e0008001780002003700b15978000201e9006b
:0c05f0000200e000fcff3a0000000600e2
:020000040000fa
:1005fc00181400000000000000000000180a0000a1
:08060c000000000000000000e6
:020000040000fa
:100614000000fa0047e7a8000080fa000000060086
:100624000000fa0047e7a9000080fa000000060075
:100634000000fa008f0607008a01070010c6210097
:10064400260507000000eb0031050700c05c200010
:10065400420507004905070020c0b3000ae8b700b7
:100664000402070001003700000000000ec8bf00ac
:100674000004e000020032007a0107000e68ef0077
:1006840019c8bf000004e00002003200a9010700fd
:100694001968ef000568ef0010c0b3008a02070074
:1006a400803e200043060700190037002085200003
:1006b400c4020700c1842000208520003a000700fe
:1006c4000000e0000c00320010c8bf000080fb00f6
:1006d4006600b90080007800a083200000804000fc
:1006e40062002000c1842000bcff070010c8bf00c6
:1006f4000040e80010e8b7008ee6a800a000200043
:100704002c0607008ee6a90010c0b30005e8b70068
:100714009b0207000004e000e4ff3a0001c7b300b5
:1007240070c0b300e1010700c5020700bc02070066
:1007340020c0b300640207000c00370010c8bf00db
:100744000040e90010e8b700a283200010c8bf00f1
:100754000080fb006600b900000078000000410042
:1007640071020700e00120001206070010c8bf0054
:100774000004e000f1ff3a0005c8bf000004e000f7
:10078400b9ff3a00a60207007ae6a9000ac8bf002a
:10079400e14f500002003a0026010700b3ff370082
:1007a4000040fe00b1ff37000400fa00000f78009b
:1007b400110798001e00e800104078000080fb003c
:1007c4006101b90030ff2f00f1ff2f00020040004b
:1007d400838048000203200003002000820f5000a1
:1007e400838f5800e8003e000060010030003700ad
:1007f400e50037003c00370062003700e2003700b4
:10080400e1003700e0003700df003700de0037008a
:10081400dd00370087003700db003700da003700df
:10082400d9003700d8003700d7003700d60037008a
:10083400d5003700d4003700d3003700d20037008a
:10084400d1003700d0003700cf003700ce0037008a
:10085400cd003700cc003700cb003700ca0037008a
:10086400c9003700c8003700c7003700c60037008a
:10087400c5003700c4003700c3003700c20037008a
:100884008a0037008f003700940037008a00370051
:100894008f00370094003700bb003700ba003700e0
:1008a400b9003700b800370092003700a9003700bc
:1008b40018c8bf000004e000050032001e009000cc
:1008c4000000e800c1c0b30001487800040037000c
:1008d4001e0090000000e80051c1b30001487800f8
:1008e40010002000a90037001e00900081c1b30051
:1008f400014878001e0090000000e80011c1b30018
:10090400014878001e0090000081e800004080004b
:10091400114080004808de0000407800004978005b
:100924001e009000630140000040800011408000e0
:100934004008de0000407800004978001e00900066
:10094400640140000040800011408000c809dd00bf
:100954004800de0000807100c808de000040780016
:10096400004978001e0090006501400000408000ae
:1009740011408000004078000049780010002000f9
:10098400820037001e00900081c1b3000148780046
:100994001e0090000000e800c1c0b30001487800c8
:1009a4001e80e800104078000080fb008000eb000f
:1009b400c800dd00000020000040880011408800cd
:1009c4009e00780063804000104078000080fb00a7
:1009d4008000eb00c000dd00000020000040880023
:1009e400114088009e017800648041001040780026
:1009f4000081fb008001eb004818dd00c810de0018
:100a0400810070004810dd0000408800114088001b
:100a14009e00780065804000104078000080fb0054
:100a24008000eb0000408800114088001000200086
:100a3400560037001e00900081c1b30001487800c1
:100a44001e0090000000e80041c1b3000148780096
:100a5400ab000700604088001e0090000080e800a2
:100a64008040eb00014878001e00900063004000c5
:100a74008040eb00014878001e00900064004000b4
:100a840061408000c808de00814078000148780099
:100a94001e009000650040006140800081407800a5
:100aa4000148780010002000380037008ec6a800e6
:100ab4000000eb00350037008ec6a9000000eb00f3
:100ac400320037008ee6a8000000eb002f0037004c
:100ad4008ee6a9000000eb002c0037007b26a8005e
:100ae4000000eb00290037007b26a9000000eb0082
:100af400260037001e00900081c1b3000148780031
:100b04001e0090000000e800c1c0b3000148780056
:100b1400c301070020c0b3006b010700a000200040
:100b240024050700c08420007f010700a0002000e6
:100b340020050700ba01070010c0b3000ae8b70097
:100b440010c0b30006e8b7003a0007000000eb004d
:100b54000e003700c70007001e00900081c1b300db
:100b6400014878001e0090000000e800c1c0b300f6
:100b7400014878000668ef0020c0b3000ae8b70017
:100b84001000200001003700100020000080fa004f
:100b9400000006000000fa000004070010c621004f
:100ba400ce0307000000eb00d9030700f30307009e
:100bb4000ac8bf00e14f500009003a000fc8bf0047
:100bc400fe4f50000600360010c0b3000ee8b70018
:100bd40010c0b30005e8b7000f68ef00130037003a
:100be4000fc8bf00fe4f50000600360010c0b3000f
:100bf40019e8b70010c0b30005e8b7000f68ef00ac
:100c04000a0037000fc8bf000040e8000fe8b70033
:100c14008ec6a8007b26a80040012000e50407003a
:100c24008ec6a9007b26a9000040fe000080fa00c1
:100c3400000006000000fa0010c62100a703070008
:100c44000000eb00b203070024000700cb030700f9
:100c540010c0b3000ae8b7000040fe000080fa00ac
:100c6400000006000600fa006606a8008ec6a8006a
:100c740040062000cf0407008ec6a900413028009a
:100c840005000900315f78006e00b100e3852000a3
:100c94008285200031c0b30020c0b300cf0007001c
:100ca4005f01070020c0b300070107007b26a800ee
:100cb4000e0078001c01070040012000bd0407005d
:100cc4007b26a9005601070010c0b300fe000700f0
:100cd400410007000080fa00000006000000fa004e
:100ce4006b0007006626a8006606a9008ec6a90048
:100cf4008ee6a9007b26a9000080fa000000060009
:100d04000000fa007b86a80041fe07004006200090
:100d1400a80407000000eb000e03070060408800f1
:100d24003ffe07007b86a900604080000080fa0037
:100d3400000006000800fa00e2004700e22f280045
:100d440005000900b25878000000eb00000f78009d
:100d54003301070020c0b300db000700a00020001f
:100d6400940407008ee6a800e5ff0700000f780052
:100d740061408000b0852000808f500001003e005b
:100d84001868ef008ee6a9000040eb004047980089
:100d94000040eb00504798001e0078004800de0039
:100da40000407800604798001e00780000407800fa
:100db400704798000e80e800db000700a0002000c8
:100dc4007c0407001601070010c0b30005e8b70053
:100dd4000080fa00000006000000fa007a86a800ed
:100de4007a06a8006626a9007a66a9007a06a900f0
:100df400f0692000570207007a06a8007a06a900c5
:100e0400f0bf2100530207007a06a8007a06a90061
:100e1400100022004f0207007a06a8007a06a900f3
:100e2400000023004b0207007a06a8007a06a900f6
:100e3400a0152600470207007a06a8007a06a90032
:100e440000002800430207007a06a8007a06a900d9
:100e540000102c003f0207007a06a8007a06a900b9
:100e640020002d003b0207007a06a8000080fa004b
:100e7400000006000000fa007a66a80010002000b6
:100e84004c0407007a66a9000080fa0000000600fe
:100e94000000fa008e06a800100020004504070098
:100ea4008e06a9000080fa00000006000200fa0085
:100eb400004f7800114798007b06a9001e40780077
:100ec4000054a000730107001e4090007101070048
:100ed4007b06a8000080fa00000006000400fa0067
:100ee400204798007b06a9002e4090006901070066
:100ef4000040eb0067010700004f78007b06a80064
:100f04001e4078000080fa00000006000800fa0085
:100f14002047980021079800624798007b06a900a3
:100f24002e4090005b0107000040eb00004f78006a
:100f3400070037002e00900010407800550107008c
:100f44002e0090000000e800200798001e4fe800e3
:100f54006e4090009e40780080cf5000f5ff39002d
:100f64007b06a8000080fa00000006000800fa00d2
:100f74002047980021079800624798007b06a90043
:100f84002e409000430107000040eb00004f780022
:100f9400080037000040eb003e010700ae0090005f
:100fa400804878002e0090000000e8002007980098
:100fb4001e4fe8006e4090009e40780080cf5000a5
:100fc400f4ff39002e0090008040eb0001487800c7
:100fd4007b06a8000080fa00000006000600fa0064
:100fe400004f7800114798001207980023079800d3
:100ff4007706a90076e6a9007b06a8007ae6a90090
:1010040040062000eb030700a1c0b3000040eb0042
:10101400a6ff0700a0002000e603070031c0b300cc
:1010240010c0b300a1ff070031c0b30020c0b3005b
:101034009eff070031c0b30030c0b3009bff070020
:1010440081c3b30040c0b30098ff07001e40900066
:101054006700070061c0b30060c0b30093ff0700de
:1010640052c0b3009e009000a0c2b300a7ff0700c7
:1010740052c0b300ae009000b0c2b300a3ff07009b
:1010840052c0b3009e00900000c3b3009fff07004e
:1010940061c0b30010c1b30084ff070061c0b30096
:1010a40020c1b30081ff070040062000c1030700f0
:1010b4001e4078000400070040062000bd0307001e
:1010c4000080fa00000006000200fa00004f7800d9
:1010d4005b00070001c7b30070c0b30073ff0700d3
:1010e4001e80fb00e10f500003003200e20f5000ad
:1010f400060032000a003700f1c0b3000040eb00e4
:101104006aff07007ae6a80005003700e1c0b300d3
:101114000040eb0065ff07007ae6a900000000002c
:101124000080fa00000006000200fa00000f7800b8
:1011340020c0b300e4ff070062c0b3009e00780043
:1011440000cab30071ff07007ae6a800100020006f
:10115400980307007ae6a9000080fa000000060060
:101164000200fa0070c1b3005cff0700004f780072
:101174009e40780061c060000080fa000000060014
:101184000000fa0070c0b30054ff07008080fb0029
:1011940000042000008060000000e0000200320033
:1011a40010c0b30005003700edff07000080fb000e
:1011b4000000e9004f00de00004078000080fa00e3
:1011c400000006000200fa00000f780062c0b300bd
:1011d4009e00780010c6b30064ff070001c7b30087
:1011e40070c0b30031ff07000080fa000000060061
:1011f4000200fa00004f78009e40780050c0b3000f
:101204002aff07000080fa00000006000000fa0030
:1012140050c0b30031ff07000080fa000000060050
:101224000000fa00a1c0b3000040eb001fff07005c
:10123400a00020005f0307000080fa000000060001
:101244000000fa007b06a90010ceb300910007004d
:101254007b06a8007b06a90020ceb3008d00070002
:101264007b06a8000080fa00000006000000fa00d7
:10127400f623ef00f823ef00fc23ef000424ef0033
:101284000824ef000a24ef000c24ef000e24ef00e2
:1012940010122800a01f88000080fa000000060039
:1012a4000400fa00000f7800110798000000000005
:1012b400e01f8000620060000000e000fcff3a00d4
:1012c4001e007800104078000080fb000020880099
:1012d40000000000e11f8000000220000080600088
:1012e4000000e000fbff3a0000208000804078000e
:1012f4001e009000014878000080fa0000000600fb
:101304001800fa00100f9800210f9800320f98006f
:101314000000eb00000f78000000eb0010079800bd
:101324000000eb00700798000000eb00000f98002d
:1013340010002000600798001e0890000000e000e4
:1013440005003a000000eb005007980070004700c9
:101354002007980004003700ee0090005107980021
:101364009e089000210798003e0890000000e000cd
:1013740005003a000000eb00400798006e004700ab
:101384003007980005003700ee00900041079800f0
:10139400be0890003107980000000000e01f8000a4
:1013a400620060000000e000fcff3a001d0037000e
:1013b400e01f8000620060000000e00009003a00c5
:1013c4002e009000104078000080fb000020880070
:1013d400ae0090005e00900000804000200798005e
:1013e4001e0fe800e11f8000000220000080600062
:1013f4000000e0000b003a000020800080407800ec
:101404003e00900001487800be0090004e0090001d
:1014140000804000300798001e0090000000e800a3
:10142400100798002e0890009e007800808f5000ce
:10143400dfff390010003700e11f800000022000a8
:10144400008060000000e0000b003a0000208000f3
:10145400804078003e00900001487800be00900073
:101464004e00900000804000300798001e0090005d
:101474000000e800100798009e0090002e089000dd
:10148400808f5000ecff39001e0078000080fa00c5
:10149400000006000400fa00204798000e80e800cf
:1014a4008e0078007eff07001e4078000080fa005e
:1014b400000006000600fa00000f780011079800eb
:1014c400220798002e0190009e0090001e007800d4
:1014d4008bff07000080fa00000006000000fa00fd
:1014e400a11f800000802000008060000000e00058
:1014f400020032002000200008003700a11f8000f5
:1015040000402000008060000000e0000200320083
:1015140010002000010037000000eb000080fa00fa
:10152400000006000000fa00e01f80000080fa00be
:10153400000006000000fa001224ef001424ef005b
:101544001824ef002024ef002424ef002624ef00c9
:101554002824ef002a24ef0010422800802088006d
:101564000080fa00000006000400fa00000f780072
:101574001107980000000000c02080006200600095
:101584000000e000fcff3a001e0078001000780024
:10159400e020880000000000c1208000000220003c
:1015a400008060000000e000fbff3a001e00900095
:1015b400e1208000010878000080fa0000000600a5
:1015c4001800fa00100f9800210f9800320f9800ad
:1015d4000000eb00000f78000000eb0010079800fb
:1015e4000000eb00700798000000eb00000f98006b
:1015f40020002000600798002e0890000000d10011
:10160400200f98001e0890000000e00005003a003a
:101614000000eb0050079800700047002007980076
:1016240004003700ee009000510798009e089000d7
:10163400210798003e0890000000e00005003a00f1
:101644000000eb00400798006e0047003007980048
:1016540005003700ee00900041079800be08900096
:101664003107980000000000c02080006200600084
:101674000000e000fcff3a001b003700c02080009f
:10168400620060000000e00008003a002e009000b4
:1016940010007800e0208800ae0090005e0090000a
:1016a40000804000200798001e0fe800c120800041
:1016b40000022000008060000000e0000a003a0000
:1016c4003e009000e120800001087800be009000f8
:1016d4004e00900000804000300798001e009000eb
:1016e4000000e800100798002e0890009e00780083
:1016f400808f5000e1ff39000f003700c1208000c7
:1017040000022000008060000000e0000a003a00af
:101714003e009000e120800001087800be009000a7
:101724004e00900000804000300798001e0090009a
:101734000000e800100798009e0090002e0890001a
:10174400808f5000edff39001e0078000080fa0001
:10175400000006000400fa00100798008e007800cc
:101764000e80e80080ff07001e0078000080fa0069
:10177400000006000600fa00000f78001107980028
:1017840022079800ae0090001e0078000101780046
:101794009e0090008aff07000080fa000000060007
:1017a4000000fa008120800000802000008060009a
:1017b4000000e00002003200200020000800370092
:1017c4008120800000402000008060000000e000d4
:1017d4000200320010002000010037000000eb007e
:1017e4000080fa00000006000000fa00c02080001b
:1017f4000080fa00000006000200fa00000f7800e2
:101804001e007800e20f50001a003200e20f500070
:1018140005003e000000e0000a003200e10f500025
:101824000e0032002b003700e40f50001d00320080
:10183400e40f500015003900e50f50001f0032007e
:1018440024003700613a800000fe2f000080600011
:101854007000b300603a88001e003700613a8000cf
:1018640000fe2f0000806000e000b300603a8800b2
:1018740018003700613a800000fe2f0000806000ed
:10188400f000b300603a880012003700613a80002b
:1018940000fe2f0000806000c001b300603a8800a1
:1018a4000c003700613a800000fe2f0000806000c9
:1018b400d001b300603a880006003700613a800026
:1018c40000fe2f0000806000e001b300603a880051
:1018d400000000000080fa00000006000000fa008a
:1018e40000402800303a88004827ef0010202000ec
:1018f400503a880070702000603a88004e27ef004c
:101904005027ef005227ef005427ef005827ef002d
:101914005a27ef005c27ef005e27ef00f422ef0068
:10192400a0c92000050007000080fa00000006009e
:101934000000fa000080fa00000006000200fa002d
:10194400000f78001e007800a04088000080fa0094
:10195400000006000400fa00100798001e00900022
:10196400a5ff07004627a8000000eb00000f780041
:10197400010037001e0fe8001e007800e30f50003e
:10198400fcff36004627a9000000eb00000f78009a
:10199400010037001e0fe8001e007800ee0f500013
:1019a400fcff360000000000303a80006100600057
:1019b4000000e000fcff3200903880000080fa0054
:1019c400000006000000fa0041048000000022002c
:1019d400008060000000e00006003200a0408000ab
:1019e4000000e00002003200a0408000000001007e
:1019f40089a0a9000080fa00000006000000fa0097
:101a04004627a8000080fa00000006000000fa0043
:101a14004627a9000080fa00000006000800fa002a
:101a240030079800403a80004200de007f406000aa
:101a34000080fb0020079800207120001007980008
:101a44000000eb00000f78000b0037001e00780048
:101a540000004000be009000008040009e00900006
:101a640091007800010878001e0090000080e800d2
:101a7400100798001e0fe8009e0078002e009000ca
:101a8400808f5000f1ff36001e0078000080fa00bd
:101a9400000006000000fa009621ef00607a2100a1
:101aa400e00c880020232800000d8800b04080004e
:101ab4000000e00002003a0040da2000270007009e
:101ac40088e0a90098e0a800608620008040eb0030
:101ad400014878000080fa00000006000200fa00c5
:101ae400000f78009e007800e10c880060862000da
:101af4008040eb00014878000080fa0000000600f6
:101b04000000fa00e00c80000080fa0000000600eb
:101b14000200fa00000f78009e007800b10c8800e3
:101b2400608620008040eb00014878000080fa00c5
:101b3400000006000000fa00b00c80000080fa00eb
:101b4400000006000000fa0040012000190107000f
:101b54008ee6a9000080fa00000006000200fa00e8
:101b6400000f780098e0a9009e007800b14088003a
:101b740098e0a8000080fa00000006000000fa00c7
:101b8400608620008040eb000148780098e0a800bf
:101b9400a1e1a8000080fa00000006000000fa009d
:101ba400a1e1a90098e0a9000080fa000000060065
:101bb4000200fa0060862000104f78001e40780072
:101bc4000004e00003003200608620008040eb0047
:101bd400014878001e4078000080fa0000000600ea
:101be4000000fa0070862000104078000080fb009e
:101bf4000080fa00000006000000fa007086200051
:101c04008040eb00014878000080fa0000000600e4
:101c14000000fa009021ef00f09f2f00900c880044
:101c240000202800a00c8800408620008040eb00a3
:101c3400014878000080fa00000006000000fa0065
:101c440040048000680060000000e00009003200e9
:101c540050862000104078008040e8005086200024
:101c6400014878004086200011c0b3000148780084
:101c74008860a9000080fa00000006000200fa0053
:101c8400000f78009e007800910c880040862000a8
:101c94008040eb00014878000080fa000000060054
:101ca4000000fa00900c80000080fa00000006009a
:101cb4000200fa00000f78009e007800810c880072
:101cc400408620008040eb00014878000080fa0044
:101cd400000006000000fa00800c80000080fa007a
:101ce400000006000000fa00408620008040eb005f
:101cf4000148780095e1a8000080fa000000060081
:101d04000000fa0095e1a9000080fa000000060036
:101d14000200fa0040862000104f78001e40780030
:101d24000004e00003003200408620008040eb0005
:101d3400014878001e4078000080fa000000060088
:101d44000000fa0050862000104078000080fb005c
:101d54000080fa00000006000000fa00508620000f
:101d64008040eb00014878000080fa000000060083
:101d74000000fa009a24ef006626ef007a26ef00ae
:101d84008e26ef0040f927001033880000c02e0093
:101d9400b0338800e0322000503488007426ef000d
:101da4008826ef009c26ef007226ef008626ef00bf
:101db4009a26ef006826ef007c26ef009026ef00bd
:101dc400c00020005033880000002e00f03388004b
:101dd4009226ef0001088000f00b200000816000d3
:101de4006004200071052000031020008049780061
:101df4008149780082497800c13d800000fc2f00b1
:101e0400008060003001b300c03d8800b13e800016
:101e140000f82f0000806000a000b300b03e8800ee
:101e2400c13e8000f00f28000080600000b0a000d8
:101e3400c03e8800a13e8000f00f28008080600032
:101e440000b0200001007000a03e8800d13e800058
:101e540000f82f00008060007000b300d03e8800be
:101e640000088000000178000260a00060042000e7
:101e74007105200003102000804978008149780012
:101e8400824978000080fa00000006000000fa0091
:101e940000002300100888000621ef006821ef00ed
:101ea4006a21ef000821ef0000702000500888002c
:101eb4000c21ef000e21ef0000082000c00b880069
:101ec4007a21ef0020002000e00b88007e21ef0043
:101ed4008021ef008221ef008421ef008621ef00b2
:101ee4000001eb0080072000a1092000131020004e
:101ef4008049780081497800824978000001eb002c
:101f0400600420007105200003102000804978003f
:101f140081497800824978000080fa0000000600b8
:020000040000fa
:101f24001a080000200000008000000012080000d1
:101f34000200000082000000ffff000014080000ff
:101f4400020000008000000064080000020000009d
:101f5400800000006608000002000000800000000d
:101f6400160800000200000080000000580800006d
:101f74000c000000820000003030300032360000d7
:101f840030303000323700003a0800001e000000f4
:101f94008000000000080000120000008000000023
:101fa4001808000002000000820000000101000087
:041fb4000000000029
:020000040000fa
:101fb8000400fa00100798000000eb00000f7800fa
:101fc800080037009021ef0045ff070000000000df
:101fd800810c8000f0f92000808f5000fcff360053
:101fe8001e0fe8001e0090009e007800808f5000b1
:101ff800f4ff39000080fa00000006000400fa002f
:10200800100798000000eb00000f7800060037006a
:102018009021ef0000000000800c8000e30f5000ca
:10202800fdff36001e0fe8001e0090009e0078009d
:10203800808f5000f6ff39000080fa00000006008b
:102048000200fa00000f78009e0078009140880096
:10205800ffff37000000fa00a08120008007780009
:1020680020832000000188000080fa00000006009c
:102078000000fa003dff07000800070082ff070084
:1020880079fc07002afd070013fe070080fe070001
:10209800defe07000080fa00000006000000fa00db
:1020a80051058000f0ff28000080600000c0a000fb
:0c20b800500588000080fa0000000600bf
:020000040000fa
:020000040005f5
:045e0000ffffff00a1
:020000040000fa
:020000040005f5
:045e2000ffffff0081
:020000040000fa
:020000040005f5
:045e300078ffff00f8
:020000040000fa
:020000040005f5
:045e3800b3ffff00b5
:020000040000fa
:020000040005f5
:045e4000ffffff0061
:020000040000fa
:020000040005f5
:045e4800ffffff0059
:020000040000fa
:020000040005f5
:045e5000dfffff0071
:020000040000fa
:020000040005f5
:045e5800efffff0059
:00000001FF
